:100000000C9453000C947B000C947B000C947B00AC
:100010000C947B000C947B000C947B000C947B0074
:100020000C947B000C947B000C947B000C947B0064
:100030000C947B000C947B000C947B000C947B0054
:100040000C9492030C947B000C9460030C943A0380
:100050000C947B000C947B000C947B000C947B0034
:100060000C947B000C947B0000000000250028000D
:100070002B0000000000240027002A0004040404D0
:100080000404040402020202020203030303030342
:10009000010204081020408001020408102001021F
:1000A00004081020880411241FBECFEFD8E0DEBF63
:1000B000CDBF11E0A0E0B1E0E6E3FEE002C00590B4
:1000C0000D92A234B107D9F721E0A2E4B1E001C05A
:1000D0001D92A83EB207E1F710E0C3E5D0E004C0EE
:1000E0002197FE010E941307C235D107C9F70E946C
:1000F000DC030C9419070C940000CF93DF9390E07D
:10010000FC01E057FF4F249184589F4FFC018491DC
:100110008823C1F090E0880F991FFC01EE58FF4F33
:10012000C591D491FC01E859FF4FA591B4919FB7B7
:10013000F8948881E22FE0958E2388838C91E823C0
:10014000EC939FBFDF91CF910895AF92BF92CF9272
:10015000DF92EF92FF920F931F93CF93DF936C0187
:100160007B018B01040F151FEB015E01AE18BF0868
:10017000C017D10759F06991D601ED91FC9101901A
:10018000F081E02DC6010995892B79F7C501DF9132
:10019000CF911F910F91FF90EF90DF90CF90BF9084
:1001A000AF900895FC01538D448D252F30E0842FAE
:1001B00090E0821B930B541710F0CF96089501978F
:1001C0000895FC01918D828D981761F0A28DAE0F7C
:1001D000BF2FB11D5D968C91928D9F5F9F73928F03
:1001E00090E008958FEF9FEF0895FC01918D828D2F
:1001F000981731F0828DE80FF11D858D90E00895FC
:100200008FEF9FEF0895FC01918D228D892F90E053
:10021000805C9F4F821B91098F73992708958BE40F
:1002200091E00E94030121E0892B09F420E0822F54
:10023000089580E090E0892B29F00E940F01811140
:100240000C9400000895FC01A48DA80FB92FB11DD6
:10025000A35ABF4F2C91848D90E001968F739927FC
:10026000848FA689B7892C93A089B1898C918370DA
:1002700080648C93938D848D981306C00288F389D3
:10028000E02D80818F7D80830895EF92FF920F9300
:100290001F93CF93DF93EC0181E0888F9B8D8C8D32
:1002A00098131AC0E889F989808185FF15C09FB726
:1002B000F894EE89FF896083E889F98980818370E9
:1002C000806480839FBF81E090E0DF91CF911F9198
:1002D0000F91FF90EF900895F62E0B8D10E00F5FB9
:1002E0001F4F0F731127E02E8C8D8E110CC00FB68F
:1002F00007FCFACFE889F989808185FFF5CFCE0127
:100300000E942301F1CFEB8DEC0FFD2FF11DE35A7D
:10031000FF4FF0829FB7F8940B8FEA89FB898081A9
:100320008062CFCFCF93DF93EC01888D8823B9F023
:10033000AA89BB89E889F9898C9185FD03C08081F0
:1003400086FD0DC00FB607FCF7CF8C9185FFF2CF6D
:10035000808185FFEDCFCE010E942301E9CFDF919F
:10036000CF9108953FB7F89480914701909148014B
:10037000A0914901B0914A0126B5A89B05C02F3F25
:1003800019F00196A11DB11D3FBFBA2FA92F982FBB
:100390008827BC01CD01620F711D811D911D42E0B6
:1003A000660F771F881F991F4A95D1F708958F927E
:1003B0009F92AF92BF92CF92DF92EF92FF920E94F4
:1003C000B2014B015C0184EFC82EDD24D394E12CF3
:1003D000F12C0E94B201681979098A099B09683ECB
:1003E000734081059105A8F321E0C21AD108E10804
:1003F000F10888EE880E83E0981EA11CB11CC11480
:10040000D104E104F10429F7FF90EF90DF90CF9041
:10041000BF90AF909F908F900895FC0101900020B5
:10042000E9F73197AF01481B590BBC018BE491E010
:100430000C94A5008F929F92AF92BF920F931F933F
:10044000CF93DF93CDB7DEB7A1970FB6F894DEBF99
:100450000FBECDBF19A2423008F44AE08E010F5DF5
:100460001F4F842E912CB12CA12CA50194010E9428
:10047000F106E62FB901CA01EA30F4F4E05DD801D3
:10048000EE938D01232B242B252B79F790E080E030
:10049000109719F0CD010E940D02A1960FB6F894A5
:1004A000DEBF0FBECDBFDF91CF911F910F91BF90E7
:1004B000AF909F908F900895E95CE1CF4F925F924B
:1004C0006F927F928F929F92AF92BF92CF92DF9264
:1004D000EF92FF920F931F93CF936B017C01742EC9
:1004E000AC019B010E94EC06882399F082E191E027
:1004F000CF911F910F91FF90EF90DF90CF90BF9021
:10050000AF909F908F907F906F905F904F900C94E2
:100510000D0246015701E894B7F82FEF3FEF4FE780
:100520005FE7C501B4010E94EC0681110DC02FEFF9
:100530003FEF4FE75FE7C501B4010E94220518169F
:100540001CF486E191E0D4CF2FEF3FEF4FE75FE45B
:10055000C701B6010E947A0618161CF48AE191E0E0
:10056000C7CF2FEF3FEF4FE75FECC701B6010E9407
:10057000220587FDF3CF20E030E0A901C701B601D5
:100580000E94220510E000E087FF0AC06DE28BE4C4
:1005900091E00E9445018C01F7FAF094F7F8F0948D
:1005A000C0E060E070E080E09FE37C1641F020E076
:1005B00030E040E251E40E942705CF5FF6CFA7016B
:1005C00096010E94B6042B013C010E9499054B0143
:1005D0005C014AE00E941A027C01E00EF11ECC236D
:1005E000C1F1C501B4010E94C8059B01AC01C30162
:1005F000B2010E94B5044B015C016EE28BE491E014
:100600000E944501E80EF91EC15018F120E030E0CB
:1006100040E251E4C501B4010E947F062B013C0178
:100620000E9499054B01B12CA12C4AE0C501B401EF
:100630000E941A02E80EF91EC501B4010E94C80505
:100640009B01AC01C301B2010E94B5044B015C01E6
:10065000DBCFC701CF911F910F91FF90EF90DF90FB
:10066000CF90BF90AF909F908F907F906F905F9052
:100670004F9008951F920F920FB60F9211242F934F
:100680003F934F935F936F937F938F939F93AF931A
:10069000BF93EF93FF938BE491E00E942301FF91BE
:1006A000EF91BF91AF919F918F917F916F915F91EA
:1006B0004F913F912F910F900FBE0F901F90189563
:1006C0001F920F920FB60F9211242F938F939F9327
:1006D000EF93FF93E0915B01F0915C018081E091E9
:1006E0006101F091620182FD1BC0908180916401E3
:1006F0008F5F8F7320916501821741F0E091640153
:10070000F0E0E55BFE4F958F80936401FF91EF91E0
:100710009F918F912F910F900FBE0F901F90189562
:100720008081F4CF1F920F920FB60F9211242F9356
:100730003F938F939F93AF93BF9380914301909189
:100740004401A0914501B09146013091420123E05E
:10075000230F2D3758F50196A11DB11D209342019D
:100760008093430190934401A0934501B0934601C7
:100770008091470190914801A0914901B0914A01AF
:100780000196A11DB11D8093470190934801A0934C
:100790004901B0934A01BF91AF919F918F913F91D1
:1007A0002F910F900FBE0F901F90189526E8230FE2
:1007B0000296A11DB11DD2CF789484B5826084BD0C
:1007C00084B5816084BD85B5826085BD85B5816055
:1007D00085BD80916E00816080936E0010928100D3
:1007E000809181008260809381008091810081608E
:1007F000809381008091800081608093800080914F
:10080000B10084608093B1008091B00081608093DA
:10081000B00080917A00846080937A0080917A00A1
:10082000826080937A0080917A00816080937A0060
:1008300080917A00806880937A001092C100E091E4
:100840005B01F0915C0182E08083E0915701F091BF
:1008500058011082E0915901F0915A018FEC808388
:1008600010926301E0915F01F091600186E0808366
:10087000E0915D01F0915E01808180618083E09173
:100880005D01F0915E01808188608083E0915D016F
:10089000F0915E01808180688083E0915D01F0913C
:1008A0005E0180818F7D80838EE00E947D0080E1EB
:1008B0000E947D0082E00E947D00C0E0D0E08EE1D9
:1008C00091E00E940D0242E060E070E0CB010E94E6
:1008D0005E020E94D7018DE291E00E940D0242E08B
:1008E00060E070E0CB010E945E028BE391E00E9429
:1008F0000D028EE391E00E940D020E94D701209725
:10090000F1F20E940F018823D1F20E940000D7CF9C
:10091000EBE4F1E01382128288EE93E0A0E0B0E015
:1009200084839583A683B78384E091E09183808359
:1009300085EC90E09587848784EC90E097878687A4
:1009400080EC90E0918B808B81EC90E0938B828B9C
:1009500082EC90E0958B848B86EC90E0978B868B75
:10096000118E128E138E148E08955058BB27AA270D
:100970000E94CD040C9440060E94320638F00E947A
:10098000390620F039F49F3F19F426F40C942F0611
:100990000EF4E095E7FB0C942906E92F0E9451061E
:1009A00058F3BA17620773078407950720F079F4A4
:1009B000A6F50C9473060EF4E0950B2EBA2FA02D1D
:1009C0000B01B90190010C01CA01A0011124FF27FC
:1009D000591B99F0593F50F4503E68F11A16F040F7
:1009E000A22F232F342F4427585FF3CF46953795F6
:1009F0002795A795F0405395C9F77EF41F16BA0BBB
:100A0000620B730B840BBAF09150A1F0FF0FBB1F68
:100A1000661F771F881FC2F70EC0BA0F621F731FB1
:100A2000841F48F4879577956795B795F7959E3F0E
:100A300008F0B0CF9395880F08F09927EE0F97959F
:100A4000879508950E94050608F481E008950E94A4
:100A50003B050C9440060E94390658F00E9432066D
:100A600040F029F45F3F29F00C94290651110C94B1
:100A700074060C942F060E94510668F39923B1F373
:100A8000552391F3951B550BBB27AA2762177307B4
:100A9000840738F09F5F5F4F220F331F441FAA1F48
:100AA000A9F335D00E2E3AF0E0E832D09150504004
:100AB000E695001CCAF72BD0FE2F29D0660F771FB2
:100AC000881FBB1F261737074807AB07B0E809F098
:100AD000BB0B802DBF01FF2793585F4F3AF09E3F1D
:100AE000510578F00C9429060C9474065F3FE4F3EA
:100AF000983ED4F3869577956795B795F7959F5F60
:100B0000C9F7880F911D9695879597F90895E1E0AB
:100B1000660F771F881FBB1F621773078407BA070A
:100B200020F0621B730B840BBA0BEE1F88F7E09565
:100B300008950E94590688F09F5798F0B92F992779
:100B4000B751B0F0E1F0660F771F881F991F1AF0B8
:100B5000BA95C9F714C0B13091F00E947306B1E0A4
:100B600008950C947306672F782F8827B85F39F0A3
:100B7000B93FCCF3869577956795B395D9F73EF451
:100B800090958095709561957F4F8F4F9F4F0895F9
:100B9000E89409C097FB3EF4909580957095619517
:100BA0007F4F8F4F9F4F9923A9F0F92F96E9BB27CD
:100BB0009395F695879577956795B795F111F8CF49
:100BC000FAF4BB0F11F460FF1BC06F5F7F4F8F4FB4
:100BD0009F4F16C0882311F096E911C0772321F0AA
:100BE0009EE8872F762F05C0662371F096E8862F42
:100BF00070E060E02AF09A95660F771F881FDAF799
:100C0000880F9695879597F90895990F0008550FC5
:100C1000AA0BE0E8FEEF16161706E807F907C0F082
:100C200012161306E407F50798F0621B730B840B8A
:100C3000950B39F40A2661F0232B242B252B21F464
:100C400008950A2609F4A140A6958FEF811D811D04
:100C5000089597F99F6780E870E060E008959FEF3E
:100C600080EC089500240A94161617061806090643
:100C7000089500240A941216130614060506089512
:100C8000092E0394000C11F4882352F0BB0F40F49A
:100C9000BF2B11F460FF04C06F5F7F4F8F4F9F4FDA
:100CA000089557FD9058440F551F59F05F3F71F05C
:100CB0004795880F97FB991F61F09F3F79F08795C3
:100CC0000895121613061406551FF2CF4695F1DF4C
:100CD00008C0161617061806991FF1CF86957105DC
:100CE000610508940895E894BB2766277727CB0110
:100CF00097F908950E94050608F48FEF08950E9461
:100D000092060C9440060E94320638F00E94390682
:100D100020F0952311F00C9429060C942F06112431
:100D20000C9474060E94510670F3959FC1F3950FC1
:100D300050E0551F629FF001729FBB27F00DB11D5F
:100D4000639FAA27F00DB11DAA1F649F6627B00DEF
:100D5000A11D661F829F2227B00DA11D621F739FD8
:100D6000B00DA11D621F839FA00D611D221F749FE6
:100D70003327A00D611D231F849F600D211D822F2D
:100D8000762F6A2F11249F5750409AF0F1F0882354
:100D90004AF0EE0FFF1FBB1F661F771F881F915081
:100DA0005040A9F79E3F510580F00C9429060C9401
:100DB00074065F3FE4F3983ED4F386957795679584
:100DC000B795F795E7959F5FC1F7FE2B880F911DAB
:100DD0009695879597F908950E940506880B990BBB
:100DE0000895A1E21A2EAA1BBB1BFD010DC0AA1F6C
:100DF000BB1FEE1FFF1FA217B307E407F50720F084
:100E0000A21BB30BE40BF50B661F771F881F991FFE
:100E10001A9469F760957095809590959B01AC0147
:100E2000BD01CF010895EE0FFF1F0590F491E02D55
:060E30000994F894FFCFC5
:100E3600000000004501A500D20092010301E10077
:100E4600F5006E616E00696E66006F76660056612B
:100E56006C6F72206465204C75783A200054656D7D
:100E660070657261747572613A20002043000D0A44
:020E760000007A
:00000001FF
