:020000040000FA
:100000000C94C7000C94EF000C94EF000C94EF00DC
:100010000C94EF000C94EF000C94EF000C94EF00A4
:100020000C94EF000C94EF000C94EF000C94EF0094
:100030000C94EF000C94EF000C94EF000C94EF0084
:100040000C94C2060C94EF000C9490060C946A0673
:100050000C94EF000C94EF000C94EF000C94EF0064
:100060000C94EF000C94EF0008000000BE922449AD
:10007000123EABAAAA2ABECDCCCC4C3E00000080DA
:10008000BEABAAAAAA3E00000000BF000000803F4D
:100090000000000000084178D3BB4387D1133D190D
:1000A0000E3CC3BD4282AD2B3E68EC8276BED98F3A
:1000B000E1A93E4C80EFFFBE01C4FF7F3F0000007E
:1000C000000007634236B79BD8A71A39685618AEA6
:1000D000BAAB558C1D3CB7CC5763BD6DEDFD753E7D
:1000E000F6177231BF000000803FCDCCCC3D0AD75F
:1000F000233C17B7D13877CC2B329595E6241FB126
:100100004F0A0000803FCDCCCC3D6F12833A95BFA3
:10011000D6337D1D9026B3CE010C00002041000097
:10012000C84200401C4620BCBE4CCA1B0E5AAEC57D
:100130009D74000000002300260029000000000834
:10014000000201000003040700000000000000009E
:1001500000000000250028002B0000000000240003
:1001600027002A0004040404040404040202020216
:10017000020203030303030301020408102040806A
:10018000010204081020010204081020480911246B
:100190001FBECFEFD8E0DEBFCDBF11E0A0E0B1E0E1
:1001A000EEEFFAE102C005900D92A635B107D9F73E
:1001B00022E0A6E5B1E001C01D92A830B207E1F748
:1001C00010E0C7ECD0E004C02197FE010E946E0D44
:1001D000C63CD107C9F70E940C070C947D0D0C9406
:1001E0000000CF93DF9390E0FC01E858FE4F24918C
:1001F0008C599E4FFC0184918823C1F090E0880FB8
:10020000991FFC01E65AFE4FC591D491FC01E05BB9
:10021000FE4FA591B4919FB7F8948881E22FE095A5
:100220008E2388838C91E823EC939FBFDF91CF913D
:100230000895AF92BF92CF92DF92EF92FF920F9309
:100240001F93CF93DF936C017B018B01040F151F6C
:10025000EB015E01AE18BF08C017D10759F06991D4
:10026000D601ED91FC910190F081E02DC601099538
:10027000892B79F7C501DF91CF911F910F91FF90E5
:10028000EF90DF90CF90BF90AF900895FC01538D19
:10029000448D252F30E0842F90E0821B930B541760
:1002A00010F0CF96089501970895FC01918D828DED
:1002B000981761F0A28DAE0FBF2FB11D5D968C9186
:1002C000928D9F5F9F73928F90E008958FEF9FEFC5
:1002D0000895FC01918D828D981731F0828DE80F81
:1002E000F11D858D90E008958FEF9FEF0895FC013B
:1002F000918D228D892F90E0805C9F4F821B910908
:100300008F73992708958FE591E00E94770121E08E
:10031000892B09F420E0822F089580E090E0892B5A
:1003200029F00E94830181110C9400000895FC01C2
:10033000A48DA80FB92FB11DA35ABF4F2C91848D46
:1003400090E001968F739927848FA689B7892C93A3
:10035000A089B1898C91837080648C93938D848DF6
:10036000981306C00288F389E02D80818F7D8083F9
:100370000895EF92FF920F931F93CF93DF93EC01B9
:1003800081E0888F9B8D8C8D98131AC0E889F9893C
:10039000808185FF15C09FB7F894EE89FF8960833F
:1003A000E889F98980818370806480839FBF81E0C0
:1003B00090E0DF91CF911F910F91FF90EF90089502
:1003C000F62E0B8D10E00F5F1F4F0F731127E02EDD
:1003D0008C8D8E110CC00FB607FCFACFE889F98915
:1003E000808185FFF5CFCE010E949701F1CFEB8D83
:1003F000EC0FFD2FF11DE35AFF4FF0829FB7F894E9
:100400000B8FEA89FB8980818062CFCFCF93DF9306
:10041000EC01888D8823B9F0AA89BB89E889F9891C
:100420008C9185FD03C0808186FD0DC00FB607FC51
:10043000F7CF8C9185FFF2CF808185FFEDCFCE0184
:100440000E949701E9CFDF91CF9108958E3008F097
:100450008E508770806480937C0080917A008064E5
:1004600080937A0080917A0086FDFCCF809178009D
:100470009091790008953FB7F89480915B01909135
:100480005C01A0915D01B0915E0126B5A89B05C0FD
:100490002F3F19F00196A11DB11D3FBFBA2FA92F03
:1004A000982F8827BC01CD01620F711D811D911D00
:1004B00042E0660F771F881F991F4A95D1F708956C
:1004C0008F929F92AF92BF92CF92DF92EF92FF9264
:1004D0000E943B024B015C0184EFC82EDD24D394C3
:1004E000E12CF12C0E943B02681979098A099B09C9
:1004F000683E734081059105A8F321E0C21AD10836
:10050000E108F10888EE880E83E0981EA11CB11C5A
:10051000C114D104E104F10429F7FF90EF90DF90BA
:10052000CF90BF90AF909F908F900895CF93DF931F
:10053000EC0188819981DC01ED91FC910190F081C1
:10054000E02D09952A813B81820F931F9B838A832B
:10055000DF91CF910895CF93DF93EC01888199814A
:10056000DC01ED91FC910280F381E02D09952A8157
:100570003B81820F931F9B838A83DF91CF910895E4
:100580008F929F92AF92BF92CF92DF92EF92FF92A3
:100590000F931F93CF93DF93CDB7DEB766970FB658
:1005A000F894DEBF0FBECDBF6C018E01095E1F4FF8
:1005B00078018AE0882E912CA12CB12CCB01BA01B4
:1005C000A50194010E944C0D942F852F605DF801C8
:1005D00062938F01A901692F782F4115510561059B
:1005E000710561F7A7014E1B5F0BBF01C6010E9499
:1005F000AB0266960FB6F894DEBF0FBECDBFDF919B
:10060000CF911F910F91FF90EF90DF90CF90BF900F
:10061000AF909F908F900895EF92FF920F931F934A
:10062000CF93DF93EC017B0162E20E949602870187
:10063000F80161918F01662391F0E2E1F1E0F2802F
:10064000FF2049F0329681816813F9CF6CE5CE0125
:100650000E9496026F2DCE010E949602E9CF62E2BF
:10066000CE01DF91CF911F910F91FF90EF900C94ED
:100670009602FC012581222339F0F8E02F02900137
:100680001124820F931F089590E080E00895FB01EC
:1006900001900020E9F73197AF01461B570B0C94EE
:1006A000AB022F923F924F925F926F927F928F9206
:1006B0009F92AF92BF92CF92DF92EF92FF920F93F1
:1006C0001F93CF93DF93CDB7DEB76C970FB6F89437
:1006D000DEBF0FBECDBF8C011B01DC0114968C91D7
:1006E00014978F77863009F474C278F48230B0F0B2
:1006F000843008F04CC212964D915C9113976D9125
:100700007C91C1010E94AB0226C28C3069F160F479
:10071000883009F459C28A3009F43FC263E271E0BB
:10072000C1010E944703E5C1803209F4ECC1803465
:10073000A9F76BE5C1010E949602F80100811181C1
:100740000115110509F4DAC1B101C8010E94510374
:10075000C8010E9439038C01892B09F4CFC16CE2D6
:10076000C1010E949602ECCFF801C080D180E280E6
:10077000F380A7019601C701B6010E94E209811129
:10078000CDCF20E030E0A901C701B6010E94E20907
:10079000882379F0A7019601C701B6010E94760966
:1007A0009B01AC01C701B6010E94E209882309F44C
:1007B000B5CF20E030E0A901C701B6010E94E209EF
:1007C00087FF08C06DE2C1010E949602F7FAF0941B
:1007D000F7F8F09420E836E948E15BE4C701B60198
:1007E0000E94410B87FD81C074E1A72EB12C00E26D
:1007F00010E0188E1F8AF501E65EFE4F25913591B7
:1008000045915491C701B6010E94410B87FD13C069
:10081000F501E651FF4F2591359145915491C7015E
:10082000B6010E94960B6B017C012F89388D200F39
:10083000311F388F2F8B1595079534E0A31AB10817
:100840008CEFA8168FEFB806B1F655245A9420E025
:1008500030E0A901C701B6010E94410B18160CF047
:100860004BC02CEA35EC47E257E3C701B6010E94C2
:10087000E20918160CF440C0A52DB4E0AB02C0018B
:100880001124912C812CFC01EE5FFE4F3F019C0155
:10089000265E3E4F59013FEF531671F1F301E80D0B
:1008A000F91D6591759185919491A70196010E941A
:1008B000410B18169CF4F501E80DF91D25913591B1
:1008C00045915491C701B6010E94960B6B017C01C2
:1008D0008F89988D801B910B988F8F8B159507951D
:1008E0005A9494E0891A9108D6CF00E210E055E0BE
:1008F000552E188E1F8AABCFC701B6010E94600A21
:100900004B015C012B013C0106E080E492E4AFE086
:10091000B0E0898F9A8FAB8FBC8F102F01509AE077
:100920004916510461047104C8F0698D7A8D8B8D6C
:100930009C8D2AE030E040E050E00E944C0D298F71
:100940003A8F4B8F5C8FC301B2012AE030E040E068
:1009500050E00E944C0D29013A01DFCFC501B401DE
:100960000E948F0A9B01AC01C701B6010E94750964
:100970006B017C01698D7A8D8B8D9C8D0E948F0A15
:100980009B01AC01C701B6010E94960B2B013C01F3
:100990000E94600A6B017C010E948F0A9B01AC01DE
:1009A000C301B2010E9475099B01AC010E94760946
:1009B0000E94600AC60ED71EE81EF91E898D9A8D08
:1009C000AB8DBC8DC816D906EA06FB06D8F09FEFA2
:1009D000891A990AA90AB90AAF89B88DAB2B39F1DE
:1009E000BAE08B169104A104B10408F1EF89F88DE7
:1009F0003196F88FEF8BC12CD12C7601812C912C64
:100A0000540183942AE0422E512C612C712CC70191
:100A1000B601A30192010E944C0D672B682B692B34
:100A200051F4111644F469017A011150F0CFC12C30
:100A3000D12C7601E7CFB501A401C1010E94C0020B
:100A4000112371F14E01F1E18F0E911C012F540120
:100A50009AE0492E512C612C712C015068F0C7018D
:100A6000B601A30192010E944C0D605DD4016E930A
:100A70004D0169017A01F1CF812F90E0BC016095B1
:100A80007095F501E81BF90B31978EE280834427BE
:100A90005527461B570B6A0D7B1DC1010E94AB02F7
:100AA000EF89F88DEF2B29F165E6C1010E949602CE
:100AB0000F89188D17FF07C06DE2C1010E949602D1
:100AC000119501951109FE0177969F018AE0E82EA4
:100AD000F12CC801B7010E94380D805D82938B0113
:100AE000672BB9F7A9014E1B5F0BBF01C1010E9423
:100AF000AB02D10112968D919C9130C06DE5C10180
:100B00000E949602F6CF6BE7C1010E949602F8019F
:100B10000081118101151105D1F0D80116966D9152
:100B20007C91C1010E940C036AE3C1010E949602FC
:100B3000B101C8010E945103C8010E9439038C0110
:100B4000892B29F06CE2C1010E949602E3CF6DE788
:100B5000C1010E949602F101828193816C960FB6C9
:100B6000F894DEBF0FBECDBFDF91CF911F910F91E3
:100B7000FF90EF90DF90CF90BF90AF909F908F90BD
:100B80007F906F905F904F903F902F9008956D9160
:100B90007C91C1010E940C03DECFCD90DD90ED90E1
:100BA000FC90B701A601F7FE0BC06DE2C1010E94E7
:100BB000960244275527BA014C195D096E097F0931
:100BC000C1010E94C002C7CF4D915D916D917C9192
:100BD000F7CF8C9168E271E0811102C06DE271E0A3
:100BE000C1010E944703B7CFCF92DF92EF92FF92ED
:100BF0000F931F93CF93DF93FC018481982F9F77EE
:100C000039F4807880628483118210821382128288
:100C1000848185FD0CC0D0E0C0E0CE01DF91CF9192
:100C20001F910F91FF90EF90DF90CF900895611585
:100C3000710589F37A016B018F01C081D181209701
:100C4000C1F16E817F816C157D0539F361157105E8
:100C500029F0C6010E94740D892BF9F2CE010E9481
:100C60003903EC01ECCFE9012897F701D583C48360
:100C7000209789F2D8011296ED91FC911397309745
:100C800091F0CE018E1B9F0B23E0959587952A95B9
:100C9000E1F785831396DC93CE9312971D821C8215
:100CA000DF82CE82BACFF801D183C083D383C283DF
:100CB000F5CFD70114962D913C91159712968D91F1
:100CC0009C9108962817390770F681E0D70118968D
:100CD0008C93A3CF1F920F920FB60F9211242F93D4
:100CE0003F934F935F936F937F938F939F93AF93B4
:100CF000BF93EF93FF938FE591E00E949701FF91DF
:100D0000EF91BF91AF919F918F917F916F915F9183
:100D10004F913F912F910F900FBE0F901F901895FC
:100D20001F920F920FB60F9211242F938F939F93C0
:100D3000EF93FF93E0916F01F09170018081E0915A
:100D40007501F091760182FD1BC090818091780140
:100D50008F5F8F7320917901821741F0E0917801C4
:100D6000F0E0E15AFE4F958F80937801FF91EF916B
:100D70009F918F912F910F900FBE0F901F901895FC
:100D80008081F4CF1F920F920FB60F9211242F93F0
:100D90003F938F939F93AF93BF938091570190910F
:100DA0005801A0915901B0915A013091560123E0A8
:100DB000230F2D3758F50196A11DB11D2093560123
:100DC0008093570190935801A0935901B0935A0111
:100DD00080915B0190915C01A0915D01B0915E01F9
:100DE0000196A11DB11D80935B0190935C01A093BE
:100DF0005D01B0935E01BF91AF919F918F913F9143
:100E00002F910F900FBE0F901F90189526E8230F7B
:100E10000296A11DB11DD2CFCF93DF93CDB7DEB720
:100E2000CC57D1090FB6F894DEBF0FBECDBF789472
:100E300084B5826084BD84B5816084BD85B58260DF
:100E400085BD85B5816085BD80916E008160809390
:100E50006E001092810080918100826080938100F9
:100E60008091810081608093810080918000816009
:100E7000809380008091B10084608093B100809164
:100E8000B00081608093B00080917A00846080938C
:100E90007A0080917A00826080937A0080917A0053
:100EA000816080937A0080917A00806880937A00D4
:100EB0001092C1008EE00E94F10080E10E94F100DA
:100EC00082E00E94F100E0916F01F091700182E0F8
:100ED0008083E0916B01F0916C011082E0916D01D3
:100EE000F0916E018FEC808310927701E091730195
:100EF000F091740186E08083E0917101F0917201BC
:100F0000808180618083E0917101F0917201808124
:100F100088608083E0917101F09172018081806826
:100F20008083E0917101F091720180818F7D8083D7
:100F30006E018FE0C80ED11C8E010D581F4F90E03E
:100F4000292E90E0392E80E10E942602BC01990FE3
:100F5000880B990B0E94910A9B01AC0160E070EC38
:100F60008FE794E40E94E70920E030E040E85FE387
:100F70000E9475099B01AC0160E070E48CE196E48D
:100F80000E94E7099B01AC0160E079ED88EF97E4EE
:100F90000E94E70925E23FE245E95FE30E94030C76
:100FA0006093000270930102809302029093030207
:100FB0000E9460028EE00E942602BC01990F880BFD
:100FC000990B0E94910A9B01AC0160E070EC8FE7E5
:100FD00094E40E94E70920E030E040E85FE30E94EB
:100FE000750920E030E44CE156E40E94960B0E9423
:100FF0004E0B4B015C012CE63FEC48E554E30E94AC
:10100000960BA50194010E94960BA50194010E94E4
:10101000960B2B013C0126ED34E649E759E3C50167
:10102000B4010E94960B2BEC38E444E85AE30E948A
:1010300076099B01AC01C301B2010E9476099B01B4
:10104000AC0160E070E080E89FE30E94E70923E3E1
:1010500033E948E853E40E947509609304027093F1
:10106000050280930602909307020E946002EEE35D
:10107000F1E08491EAE7F1E09491E6E6F1E0249171
:1010800070E060E02223E9F0882359F0833009F40E
:10109000E8C008F0DBC0813009F4E9C0823009F40F
:1010A000EAC0E22FF0E0EE0FFF1FEE5CFE4FA591CD
:1010B000B4918C91982321E080E009F420E0622F24
:1010C000782F072E000C880B990B0E94910A23ECB5
:1010D00035EF48EC50E40E94960B20E030E040E809
:1010E00050E40E94960B26E636E646E650E40E945F
:1010F000960B4B015C018092FC019092FD01A09245
:10110000FE01B092FF010E946002DA82C982DC8295
:10111000CB821E830D8318870F8319868E85807876
:101120008E874090040250900502609006027090F5
:1011300007028091000290910102A0910202B091F9
:101140000302ED968CAF9DAFAEAFBFAFED97AE0192
:101150004F5F5F4F63E371E0CE010A960E94F40592
:101160007C010097A9F0DC0114968C91149780788B
:101170008A6014968C93C301B2010E94590A072E0B
:10118000000C880B990BF701608371838283938332
:10119000AE014F5F5F4F6FE371E0CE010A960E9490
:1011A000F405FC01892B71F0948190789C60948304
:1011B000ED968CAD9DADAEADBFADED9780839183C7
:1011C000A283B383AE014F5F5F4F6CE471E0CE0149
:1011D0000A960E94F4057C010097A9F0DC011496A0
:1011E0008C91149780788A6014968C93C501B40111
:1011F0000E94590A072E000C880B990BF701608397
:10120000718382839383EFE5F1E0D8011196FC931B
:10121000EE9313961C921E921297B801CE010A9675
:101220000E94510342E050E062E571E08FE591E0F9
:101230000E9419012114310409F485CE0E94830112
:10124000882309F480CE0E9400007DCE8730B1F063
:101250008830D1F0843009F024CF809180008F7DD8
:1012600003C0809180008F77809380001ACF84B56F
:101270008F7784BD16CF84B58F7DFBCF8091B00072
:101280008F778093B0000DCF8091B0008F7DF9CF24
:10129000EFE5F1E01382128288EE93E0A0E0B0E087
:1012A00084839583A683B78384E091E091838083D0
:1012B00085EC90E09587848784EC90E0978786871B
:1012C00080EC90E0918B808B81EC90E0938B828B13
:1012D00082EC90E0958B848B86EC90E0978B868BEC
:1012E000118E128E138E148E08955058BB27AA2784
:1012F0000E948D090C94070B0E94F90A38F00E9495
:10130000000B20F039F49F3F19F426F40C94F60AF0
:101310000EF4E095E7FB0C94F00AE92F0E94180BFD
:1013200058F3BA17620773078407950720F079F41A
:10133000A6F50C943A0B0EF4E0950B2EBA2FA02DC7
:101340000B01B90190010C01CA01A0011124FF2772
:10135000591B99F0593F50F4503E68F11A16F0406D
:10136000A22F232F342F4427585FF3CF469537956C
:101370002795A795F0405395C9F77EF41F16BA0B31
:10138000620B730B840BBAF09150A1F0FF0FBB1FDF
:10139000661F771F881FC2F70EC0BA0F621F731F28
:1013A000841F48F4879577956795B795F7959E3F85
:1013B00008F0B0CF9395880F08F09927EE0F979516
:1013C000879508950E94CC0A08F481E008950E9450
:1013D000FB090C94070B0E94000B58F00E94F90ABD
:1013E00040F029F45F3F29F00C94F00A51110C945D
:1013F0003B0B0C94F60A0E94180B68F39923B1F387
:10140000552391F3951B550BBB27AA27621773072A
:10141000840738F09F5F5F4F220F331F441FAA1FBE
:10142000A9F335D00E2E3AF0E0E832D0915050407A
:10143000E695001CCAF72BD0FE2F29D0660F771F28
:10144000881FBB1F261737074807AB07B0E809F00E
:10145000BB0B802DBF01FF2793585F4F3AF09E3F93
:10146000510578F00C94F00A0C943B0B5F3FE4F3C9
:10147000983ED4F3869577956795B795F7959F5FD6
:10148000C9F7880F911D9695879597F90895E1E022
:10149000660F771F881FBB1F621773078407BA0781
:1014A00020F0621B730B840BBA0BEE1F88F7E095DC
:1014B00008950E94600A6894B1110C943B0B089542
:1014C0000E94200B88F09F5798F0B92F9927B751A9
:1014D000B0F0E1F0660F771F881F991F1AF0BA95D8
:1014E000C9F714C0B13091F00E943A0BB1E00895F1
:1014F0000C943A0B672F782F8827B85F39F0B93FE3
:10150000CCF3869577956795B395D9F73EF490958A
:101510008095709561957F4F8F4F9F4F0895E89408
:1015200009C097FB3EF490958095709561957F4F2B
:101530008F4F9F4F9923A9F0F92F96E9BB279395D9
:10154000F695879577956795B795F111F8CFFAF4E9
:10155000BB0F11F460FF1BC06F5F7F4F8F4F9F4F1A
:1015600016C0882311F096E911C0772321F09EE878
:10157000872F762F05C0662371F096E8862F70E0DE
:1015800060E02AF09A95660F771F881FDAF7880FB8
:101590009695879597F90895990F0008550FAA0B0E
:1015A000E0E8FEEF16161706E807F907C0F0121676
:1015B0001306E407F50798F0621B730B840B950B79
:1015C00039F40A2661F0232B242B252B21F40895CE
:1015D0000A2609F4A140A6958FEF811D811D08956B
:1015E00097F99F6780E870E060E008959FEF80ECD6
:1015F000089500240A941616170618060906089579
:1016000000240A9412161306140605060895092EDE
:101610000394000C11F4882352F0BB0F40F4BF2B4D
:1016200011F460FF04C06F5F7F4F8F4F9F4F08958D
:1016300057FD9058440F551F59F05F3F71F0479583
:10164000880F97FB991F61F09F3F79F08795089568
:10165000121613061406551FF2CF4695F1DF08C087
:10166000161617061806991FF1CF869571056105A4
:1016700008940895E894BB2766277727CB0197F94C
:1016800008950E94CC0A08F48FEF089516F00C9488
:101690008D0C0C94F60A68940C94F00A0E94200BAE
:1016A000A8F39923C1F3AEF3DF93CF931F930F9366
:1016B000FF92C92FDD2788232AF02197660F771F15
:1016C000881FDAF720E030E040E85FEB9FE38839DD
:1016D00020F0803E38F021968F770E947609E8E668
:1016E000F0E004C00E947609E5E9F0E00E949B0C5E
:1016F0008B01BE01EC01FB2E6F5771097595771FA9
:10170000880B990B0E94910A28E132E741E35FE3DD
:101710000E94A90BAF2D9801AE01FF900F911F9170
:10172000CF91DF910E948D090C94070B0E94A90BA9
:101730000C94070B0E94F90A38F00E94000B20F06D
:10174000952311F00C94F00A0C94F60A11240C94D1
:101750003B0B0E94180B70F3959FC1F3950F50E05F
:10176000551F629FF001729FBB27F00DB11D639F53
:10177000AA27F00DB11DAA1F649F6627B00DA11DF9
:10178000661F829F2227B00DA11D621F739FB00D9F
:10179000A11D621F839FA00D611D221F749F33270F
:1017A000A00D611D231F849F600D211D822F762FA8
:1017B0006A2F11249F5750409AF0F1F088234AF085
:1017C000EE0FFF1FBB1F661F771F881F91505040F1
:1017D000A9F79E3F510580F00C94F00A0C943B0B46
:1017E0005F3FE4F3983ED4F3869577956795B79578
:1017F000F795E7959F5FC1F7FE2B880F911D969592
:10180000879597F90895FA01EE0FFF1F309621058D
:101810003105A1F16115710561F48038BFE39B07C3
:1018200049F168949038810561F08038BFEF9B07DB
:1018300041F099234AF5FF3FE1053105210519F1F2
:10184000E8940894E795D901AA2329F4AB2FBE2F79
:10185000F85FD0F310C0FF5F70F4A695E0F7F7399A
:1018600050F019F0FF3A38F49F779F930DD00F9006
:1018700007FC9058089546F00C94F60A60E070E07A
:1018800080E89FE308954FE79F775F934F933F93DF
:101890002F930E944E0B2F913F914F915F910E9489
:1018A000960B0C945B0C29F416F00C94F00A0C9433
:1018B0003A0B0C94F60A0E94200BA8F39638A0F776
:1018C00007F80F92E8942BE33AEA48EB5FE70E94AF
:1018D000AC0B0F920F920F924DB75EB70F920E9412
:1018E000040DE2ECF0E00E949B0C4F915F91EF91B0
:1018F000FF91E595EE1FFF1F49F0FE57E068442772
:10190000EE0F441FFA95E1F74195550B0E94CE0C5E
:101910000F9007FE0C94C20C08959F3F31F0915038
:1019200020F4879577956795B795880F911D9695C3
:10193000879597F90895DF93CF931F930F93FF92A5
:10194000EF92DF927B018C01689406C0DA2EEF01E2
:101950000E94A90BFE01E894A5912591359145912E
:101960005591A6F3EF010E948D09FE019701A80190
:10197000DA9469F7DF90EF90FF900F911F91CF916C
:10198000DF9108959B01AC0160E070E080E89FE387
:101990000C94E7090C94F00A0C948D0C0E94200B17
:1019A000D8F39923C9F3940F511DA3F391505040DC
:1019B00094F059F0882332F0660F771F881F9150FA
:1019C0005040C1F79E3F51052CF7880F911D969509
:1019D000879597F908955F3FACF0983E9CF0BB2740
:1019E000869577956795B79508F4B1609395C1F79B
:1019F000BB0F58F711F460FFE8CF6F5F7F4F8F4F39
:101A00009F4FE3CF0C943B0BFA01DC01AA0FBB1FE5
:101A10009B01AC01BF5728F4222733274427507875
:101A200020C0B75190F4AB2F0024469537952795E9
:101A3000011CA395D2F3002071F0220F331F441F25
:101A4000B395DAF30ED00C94750961307105A0E8F6
:101A50008A07B94630F49B01AC01662777278827AF
:101A60009078309621F02083318342835383089508
:101A7000AA1BBB1B51E107C0AA1FBB1FA617B707B4
:101A800010F0A61BB70B881F991F5A95A9F78095D0
:101A90009095BC01CD010895A1E21A2EAA1BBB1B93
:101AA000FD010DC0AA1FBB1FEE1FFF1FA217B3072A
:101AB000E407F50720F0A21BB30BE40BF50B661F40
:101AC000771F881F991F1A9469F760957095809504
:101AD00090959B01AC01BD01CF010895EE0FFF1F52
:101AE0000590F491E02D0994FB01DC018D910190AA
:101AF00080190110D9F3990B0895F894FFCF0000D5
:101B00000000B9011901460106027701550169017A
:101B10002F2F22225C5C6208660C6E0A720D74091B
:101B2000006E756C6C00747275650066616C73652F
:101B30000054656D7065726174757261004C756DED
:101B4000696E6F7369646164650056656E746F00D9
:041B50000D0A00007A
:107E0000112484B714BE81FFF0D085E080938100F7
:107E100082E08093C00088E18093C10086E0809377
:107E2000C20080E18093C4008EE0C9D0259A86E02C
:107E300020E33CEF91E0309385002093840096BBD3
:107E4000B09BFECF1D9AA8958150A9F7CC24DD24C4
:107E500088248394B5E0AB2EA1E19A2EF3E0BF2EE7
:107E6000A2D0813461F49FD0082FAFD0023811F036
:107E7000013811F484E001C083E08DD089C08234E0
:107E800011F484E103C0853419F485E0A6D080C0E4
:107E9000853579F488D0E82EFF2485D0082F10E0AE
:107EA000102F00270E291F29000F111F8ED06801E7
:107EB0006FC0863521F484E090D080E0DECF843638
:107EC00009F040C070D06FD0082F6DD080E0C81688
:107ED00080E7D80618F4F601B7BEE895C0E0D1E017
:107EE00062D089930C17E1F7F0E0CF16F0E7DF06D8
:107EF00018F0F601B7BEE89568D007B600FCFDCFD4
:107F0000A601A0E0B1E02C9130E011968C91119780
:107F100090E0982F8827822B932B1296FA010C0160
:107F200087BEE89511244E5F5F4FF1E0A038BF0790
:107F300051F7F601A7BEE89507B600FCFDCF97BE46
:107F4000E89526C08437B1F42ED02DD0F82E2BD052
:107F50003CD0F601EF2C8F010F5F1F4F84911BD097
:107F6000EA94F801C1F70894C11CD11CFA94CF0C13
:107F7000D11C0EC0853739F428D08EE10CD085E9AC
:107F80000AD08FE07ACF813511F488E018D01DD067
:107F900080E101D065CF982F8091C00085FFFCCF94
:107FA0009093C60008958091C00087FFFCCF809118
:107FB000C00084FD01C0A8958091C6000895E0E648
:107FC000F0E098E1908380830895EDDF803219F02E
:107FD00088E0F5DFFFCF84E1DECF1F93182FE3DFCA
:107FE0001150E9F7F2DF1F91089580E0E8DFEE27F6
:047FF000FF270994CA
:027FFE00040479
:00000001FF
